:02000002E0001C
:10000000970000009380C00B8280000058190E00FA
:10001000AE080E00AE080E00AE080E0086180E00E8
:10002000AE080E00AE080E00AE080E00AE080E00C0
:10003000AE080E00AE080E00AE080E00AE080E00B0
:10004000AE080E00AE080E00AE080E000000000064
:1000500000000000000000000000000000000000A0
:100060000000000000000000000000000000000090
:100070000000000000000000000000000000000080
:100080000000000000000000000000000000000070
:100090000000000000000000000000000000000060
:1000A0000000000000000000000000000000000050
:1000B0000000000000000000000000007370043029
:1000C000370505E013050508930510002320B5004A
:1000D000370500E013050501930530082320B5001E
:1000E000370505E0930500002320B500370505E03E
:1000F00013054506B7256B00938575082320B500C9
:10010000370505E013050506930590002320B5008B
:100110009701F21F938101751721F21F130181EEE0
:100120009302002073A0027D97020000938282ED6B
:100130007390723097020000938282707390C27E37
:1001400073E0C07E970200009382C26773905230C2
:100150009302F00373B0523073E0513073F0023207
:10016000170500001305450A970500009385C5098A
:100170006302B502174600001306C6A163FCC50062
:100180008322050023A055001305450093854500F3
:10019000E3E8C5FE174500001305C59F9705F21F4C
:1001A000938545E61706F21F130646ED63FCC5006E
:1001B0008322050023A055001305450093854500C3
:1001C000E3E8C5FE1705F21F130545EB9385819201
:1001D0006378B5002320050013054500E36CB5FEE8
:1001E000EF0030341725000013058572EF20607191
:1001F000EF2060751305000093050000EF10B02E8E
:040200006F0000008B
:10024000464C41534858495000000000464C415329
:1002500048000000494C4D00574F524B3100000000
:10026000574F524B32000000574F524B33000000A3
:100270004D43415553453A203078256C780D0A009E
:100280004D45504320203A203078256C780D0A00E7
:100290004D5456414C203A203078256C780D0A0098
:1002A00031313A33373A3339000000004E6F76204F
:1002B00020362032303233004E75636C656920532E
:1002C000444B204275696C642054696D653A202561
:1002D000732C2025730D0A00446F776E6C6F616478
:1002E000204D6F64653A2025730D0A004350552058
:1002F0004672657175656E637920256420487A0DB4
:100300000A00000040020E004C020E0054020E00D3
:1003100058020E0060020E0068020E00000000008D
:10032000496E697469616C697A652074696D65727A
:1003300020616E642073746172742074696D6572DB
:1003400020696E7465727275707420706572696F61
:10035000646C790A0D00000025642C2025642C2093
:1003600025642C2025642C2025640A0025642C207B
:1003700025642C2025640A00496E697420646F6E20
:10038000650D0A00000000007B14AE47E17AA43F2F
:10039000A4230000A4230000BC2300009E2300002F
:1003A0009E2300004A240000BC2300009E2300007E
:1003B0004A2400009E230000BC2300009C23000070
:1003C0009C2300009C2300004A240000000102023C
:1003D00003030303040404040404040405050505DD
:1003E00005050505050505050505050506060606B9
:1003F000060606060606060606060606060606069D
:100400000606060606060606060606060707070788
:10041000070707070707070707070707070707076C
:10042000070707070707070707070707070707075C
:10043000070707070707070707070707070707074C
:100440000707070707070707070707070808080838
:10045000080808080808080808080808080808081C
:10046000080808080808080808080808080808080C
:1004700008080808080808080808080808080808FC
:1004800008080808080808080808080808080808EC
:1004900008080808080808080808080808080808DC
:1004A00008080808080808080808080808080808CC
:1004B00008080808080808080808080808080808BC
:1004C00008080808080808080808080800000000CC
:1004D000000000000000000000000000000000001C
:1004E000000000000000000000000000000000000C
:1004F00000000000000000000000000000000000FC
:1005000000000000000000000000000000000000EB
:1005100000000000000000000000000000000000DB
:10052000000000000000000000000000232D302B20
:1005300020000000686C4C00656667454647000077
:100540003031323334353637383941424344454609
:1005500000000000303132333435363738396162CB
:100560006364656600000000F0330000063400009C
:10057000C6330000C6330000C6330000C633000097
:1005800006340000C6330000C6330000C633000046
:10059000C63300005E3500004434000030350000F2
:1005A000C6330000C63300008E350000C63300009D
:1005B00044340000C6330000C63300003835000064
:1005C000011122CE00102326A4FEFD573E85724461
:1005D00005618280011106CE22CC00102326A4FEE4
:1005E0002545F93FAA873E85F24062440561828035
:1005F000011122CE00102326A4FEFD573E85724431
:1006000005618280011106CE22CC00102326A4FEB3
:100610002324B4FE2545E93FAA873E85F240624483
:1006200005618280011122CE00102326A4FE854799
:100630003E85724405618280011122CE001023267E
:10064000A4FEFD573E85724405618280011106CEED
:1006500022CC00102326A4FE2324B4FE2322C4FEB1
:100660002545D93FAA873E85F240624405618280D4
:10067000797106D622D40018232EA4FC232CB4FCB6
:10068000232AC4FC8327C4FD99C3FD5739A88327B7
:1006900084FD2326F4FE370501E04123AA873E8727
:1006A0008327C4FE2380E70085473E85B25022544D
:1006B00045618280011122CE00102326A4FE9707F7
:1006C000F21F9387279A98438327C4FE3E97938708
:1006D00081926360F7029707F21F9387A798984368
:1006E0008327C4FE3E979717F21F9387A7D163F421
:1006F000E700FD5705A89707F21F9387A796984331
:100700008327C4FE3E979707F21F9387A79598C348
:100710009707F21F9387079598438327C4FEB30773
:10072000F040BA973E85724405618280797106D6A1
:1007300022D40018232EA4FC232CB4FC232AC4FCAE
:100740000325C4FDEF20A02AAA8799E3FD57B1A88D
:10075000832784FD2324F4FE232604FE3DA80327DB
:1007600084FE8327C4FEBA9703C70700A947631610
:10077000F700B545370501E08521032784FE83276F
:10078000C4FEBA9783C70700BE85370501E0A921DB
:100790008327C4FE85072326F4FE0327C4FE832790
:1007A00044FDE36EF7FA832744FD3E85B2502254A0
:1007B0004561828000000000000000000000000091
:1007C0005D7106C012C216C41AC61EC82ACA2ECC33
:1007D00032CE36D03AD23ED442DC46DEF2C0F6C249
:1007E000FAC4FEC673D0E57E7350F67E73D0B67E33
:1007F000732520348A85FD23D2527390427CC252E5
:1008000073901234B2527390223482401242A24248
:100810003243C2435245E245724682561257A257AE
:100820006258F258064E964E264FB64F61617300DD
:100830002030000000000000000000005D7106C0D4
:1008400012C216C41AC61EC82ACA2ECC32CE36D040
:100850003AD23ED442DC46DEF2C0F6C2FAC4FEC64C
:1008600073D0E57E7350F67E73D0B67EF390D07E63
:1008700073700430D2527390427CC252739012341F
:10088000B2527390223482401242A2423243C24397
:100890005245E245724682561257A2576258F258A4
:1008A000064E964E264FB64F61617300203001A070
:1008B0000000011106CE22CC0010AA87A307F4FE87
:1008C0008347F4FEBE85370501E039260100F2407A
:1008D000624405618280011106CE22CC00102326DD
:1008E000A4FE8327C4FE93F7F70F3E85D937010096
:1008F000F240624405618280011106CE22CC0010D4
:100900002326A4FE19A88327C4FE138717002326D5
:10091000E4FE83C707003E85693F8327C4FE83C783
:100920000700F5F301000100F24062440561828096
:100930005D7186C6A2C48008232EA4FA9307C4FC66
:100940002326F4FE8327C4FB63D607041305D002D5
:1009500059378327C4FBB307F040232EF4FA1DA8B0
:100960000327C4FBA947B367F70213F7F70F8327E1
:10097000C4FE938617002326D4FE130707031377BC
:10098000F70F2380E7000327C4FBA947B347F7020B
:10099000232EF4FA8327C4FBE1F79307C4FC032753
:1009A000C4FEE30FF7FA21A88327C4FEFD17232610
:1009B000F4FE8327C4FE83C707003E85293F9307C3
:1009C000C4FC0327C4FEE311F7FE01000100B6409A
:1009D0002644616182805D7106D622D40018232EE0
:1009E000A4FC4CC010C454C418C85CC8232C040117
:1009F000232E140193070402232CF4FC832784FD87
:100A000091172324F4FE232604FEC1A88327C4FEE5
:100A10000327C4FDBA9703C707009307500263106A
:100A2000F70A41A08327C4FE0327C4FDBA9703C772
:100A3000070093073006631CF700832784FE1387A3
:100A400047002324E4FE9C433E85713551A0832753
:100A5000C4FE0327C4FDBA9703C7070093073007F6
:100A6000631CF700832784FE138747002324E4FEDA
:100A70009C433E855135A9A88327C4FE0327C4FDA6
:100A8000BA9703C7070093074006631CF700832744
:100A900084FE138747002324E4FE9C433E85493DA2
:100AA00005A88327C4FE85072326F4FE8327C4FEFA
:100AB0000327C4FDBA9783C70700ADF711A88327A2
:100AC000C4FE0327C4FDBA9783C707003E852135BE
:100AD0008327C4FE85072326F4FE8327C4FE03274D
:100AE000C4FDBA9783C7070095F301003E85B25055
:100AF000225461618280011122CE00102326A4FEBF
:100B00002324B4FE2322C4FE8327C4FE93B7170018
:100B100093F7F70F99C3FD57ADA097F7F11F938790
:100B2000A7549843832784FE8607B357F702138799
:100B3000F7FF8327C4FE98CF8327C4FE9C4713E7A3
:100B400017008327C4FE98C78327C4FEDC4713E73A
:100B500017008327C4FED8C78327C4FE9C5313F70E
:100B6000F7F88327C4FE98D38327C4FE98538327BE
:100B700044FE920793F707075D8F8327C4FE98D33F
:100B800081473E85724405618280011122CE0010AA
:100B90002326A4FE2324B4FE8327C4FE93B71700A4
:100BA00093F7F70F99C3FD5725A08327C4FE9C47F1
:100BB00013F797FF8327C4FE98C78327C4FE98477F
:100BC000832784FE86075D8F8327C4FE98C78147ED
:100BD0003E85724405618280011122CE00102326D9
:100BE000A4FEAE87A305F4FE8327C4FE93B71700C7
:100BF00093F7F70F99C3FD5729A801008327C4FE77
:100C00009C43E3CD07FE0347B4FE8327C4FE98C38D
:100C100081473E85724405618280797122D6001831
:100C2000232EA4FC8327C4FD93B7170093F7F70F77
:100C300081C79307F00F31A88327C4FDDC43232627
:100C4000F4FE8327C4FEE3C907FE8327C4FE93F79F
:100C5000F70F3E85325445618280397106DE22DC11
:100C600080002326A4FC8327C4FC3E838143B787EE
:100C70007D01938707843387F3028147B307F3022B
:100C80003E97B7877D0193870784B306F302B33895
:100C9000F3023688B3071701BE881306803E8146EB
:100CA0004285C685EF10003B2A87AE872324E4FEE9
:100CB0002326F4FEB70700D19843DC432320E4FE4B
:100CC0002322F4FEB70700D103A8070083A847003A
:100CD000032504FE832544FE3306A840B287B337BC
:100CE000F800B386B840B387F640BE86232CC4FC18
:100CF000232ED4FC0327C4FE8327C4FDE3E4E7FCD2
:100D00000327C4FE8327C4FD6318F700032784FE6E
:100D1000832784FDE3E8E7FA0100F2506254216181
:100D20008280411122C626C4000897F7F11F9387DD
:100D3000A73337E7F5051307071098C3854473A059
:100D4000A47CC16473A0A47C01003244A24441018C
:100D50008280011106CE22CC00102326A4FE23247B
:100D6000B4FE8325C4FE17F5FFFF1305A550EF1051
:100D70007044F3271034BE808687BE8517F5FFFFC9
:100D800013054550EF101043F3273034BE8086879B
:100D9000BE8517F5FFFF1305E54FEF10B04101A029
:100DA000011122CE0010232604FE1DA0170700000B
:100DB000130767FA97F6F11F9386C6308327C4FEA0
:100DC0008A07B69798C38327C4FE85072326F4FEB7
:100DD0000327C4FEB147E3DBE7FC010001007244D6
:100DE00005618280797106D622D40018232EA4FCD6
:100DF000232CB4FC0327C4FD8567FD17F98F23243A
:100E0000F4FE032784FEAD4763EEE70017F7F11FFA
:100E10001307472B832784FE8A07BA979C43232610
:100E2000F4FE2DA0032784FE8567FD17631AF700E3
:100E300097F7F11F938707299C5B2326F4FE39A0BF
:100E400097070000938727F12326F4FE8327C4FE2B
:100E500081CB8327C4FE832584FD0325C4FD8297AF
:100E600081473E85B250225445618280797106D611
:100E700022D4001897F7FFFF938707498843CC4394
:100E80009047D447984BDC4B232CA4FC232EB4FC76
:100E90002320C4FE2322D4FE2324E4FE2326F4FED2
:100EA00017F6FFFF1306064097F5FFFF93854540B1
:100EB00017F5FFFF13058540393E8327C4FEBE8525
:100EC00017F5FFFF13058541393697F7F11F938713
:100ED000A7199C43BE8517F5FFFF13056541E53C47
:100EE0000100B250225445618280011122CE0010CF
:100EF000A30504FEB70700D20347B4FEA385E700AD
:100F00000100B70700D2DC43D583BD8B2326F4FE56
:100F1000B70700D283C7070013F7F70FB70700D250
:100F2000059B1377F70F2380E700B70700D283C72D
:100F3000070093F7F70F1397870161878327C4FE94
:100F400093F7F70F860793F7F70FE207E187F98B1F
:100F5000E207E187D98F139787016187B70700D22E
:100F60001377F70F2380E700010001007244056149
:100F700082801971A2DEA6DC00012326A4F82322B8
:100F8000C4F82320F4F8AE87A305F4F8B687230548
:100F9000F4F8BA87A304F4F80327C4F89307F0021F
:100FA00063ECE7000347B4F8854763E7E7000327EE
:100FB00044F88D4763F4E700FD576DA68347B4F806
:100FC0000327C4F82326E4FA2324F4FA370700D2CF
:100FD0008327C4FA938707408A07BA9783C72700F5
:100FE00093F7F70FB70600D2F99B13F7F70F832794
:100FF000C4FA938707408A07B6972381E70037072B
:1010000000D28327C4FA938707408A07BA9783C719
:10101000270013F7F70F832784FA93F7F70FB70624
:1010200000D2D98F13F7F70F8327C4FA93870740AD
:101030008A07B6972381E70001008327C4F8232A93
:10104000F4FA832744F82328F4FA370700D28327D9
:1010500044FB938707408A07BA9783C7270093F713
:10106000F70FB70600D2E59B13F7F70F832744FB72
:10107000938707408A07B6972381E700370700D296
:10108000832744FB938707408A07BA9783C72700C3
:1010900013F7F70F832704FB93F7F70F860793F7F0
:1010A000F70FB70600D2D98F13F7F70F832744FB4A
:1010B000938707408A07B6972381E70001008327BB
:1010C000C4F82328F4FC8347A4F8A307F4FCB7076B
:1010D00000D283C7070093F7F70F8583BD8B2307E3
:1010E000F4FCB70700D2DC43D583BD8BA306F4FC28
:1010F0008347E4FCF1C70347E4FC8347D4FC63F671
:10110000E7008347D4FC2307F4FC8347E4FC05474E
:10111000B317F70093F7F70FFD172306F4FC034707
:10112000F4FC8347C4FC63F6E7008347C4FCA307D1
:10113000F4FC0347F4FC8347E4FCA146B387F64084
:10114000B317F700A305F4FC832704FD2322F4FC66
:10115000370700D2832744FC938707408A07BA9752
:1011600083C7370093F7F70FA301F4FC034734FC60
:101170008347E4FCB317F700A301F4FC034734FCF6
:101180008347E4FCB357F740A301F4FC0347B4FCE6
:10119000834734FCD98F93F7F70F032704FD232EE1
:1011A000E4FAA30DF4FA370700D28327C4FB938730
:1011B00007408A07BA970347B4FBA381E70011A051
:1011C00001008327C4F82326F4FE834794F8A3057F
:1011D000F4FEB70700D283C7070093F7F70F8583A4
:1011E000BD8B2305F4FEB70700D2DC43D583BD8B4E
:1011F000A304F4FE0347A4FE834794FE6376F70E30
:10120000034794FE8347A4FEB307F7400547B3178F
:10121000F70093F7F70FFD172304F4FE0347B4FE1E
:10122000834784FE63F6E700834784FEA305F4FE4C
:101230000347B4FE834794FEA146B387F640B31735
:10124000F700A305F4FE834794FE1307F00FB3578E
:10125000F740A303F4FE0347B4FE834774FED98F1F
:10126000A305F4FE8327C4FE2320F4FE370700D233
:10127000832704FE938707408A07BA9783C73700FE
:1012800093F7F70FA30FF4FC0347F4FD8347A4FE85
:10129000A146B387F640B357F740A30FF4FC0347CA
:1012A000F4FD8347A4FEA146B387F640B317F700C9
:1012B000A30FF4FC0347B4FE8347F4FDD98F93F7E3
:1012C000F70F0327C4FE232CE4FCA30BF4FC370721
:1012D00000D2832784FD938707408A07BA97034784
:1012E00074FDA381E70001000100832704F89DCB72
:1012F000832704F80327C4F82322E4FA2320F4FA0E
:10130000F3277030BE84A687232CF4F8832744FA91
:101310008A073E87832784F9BA973E87832704FA92
:101320001CC301008327C4F8232EF4F8370700D22A
:101330008327C4F9938707408A07BA9783C71700A2
:1013400093F7F70FB70600D293E7170013F7F70FDD
:101350008327C4F9938707408A07B697A380E700DD
:10136000010081473E857654E6540961828041112F
:1013700006C622C400080D46F1679385072037058D
:1013800001E0EFF04FF7DD34213C85360100B2403B
:10139000224441018280411122C6000801003244EA
:1013A000410182801D71A2CE80102324A4FA23263D
:1013B000B4FA01478147232CE4FA232EF4FAB70745
:1013C00000D1032684FB8326C4FB90C3D4C3010051
:1013D000032784FA8327C4FA2320E4FC2322F4FCA5
:1013E000B70700D1032604FC832644FC90C7D4C76A
:1013F00001009D472326F4FC232404FC370700D278
:101400008327C4FC938707408A07BA9783C72700BE
:1014100093F7F70FB70600D2F99B13F7F70F83275F
:10142000C4FC938707408A07B6972381E7003707F4
:1014300000D28327C4FC938707408A07BA9783C7E3
:10144000270013F7F70F832784FC93F7F70FB706EE
:1014500000D2D98F13F7F70F8327C4FC9387074077
:101460008A07B6972381E70001009D472324F4FEF5
:101470008547A303F4FEB70700D283C7070093F79D
:10148000F70F8583BD8B2303F4FEB70700D2DC433F
:10149000D583BD8BA302F4FE834764FEF1C70347E7
:1014A00064FE834754FE63F6E700834754FE23033C
:1014B000F4FE834764FE0547B317F70093F7F70F71
:1014C000FD172302F4FE034774FE834744FE63F6D0
:1014D000E700834744FEA303F4FE034774FE8347FB
:1014E00064FEA146B387F640B317F700A301F4FEEC
:1014F000832784FE232EF4FC370700D28327C4FD04
:10150000938707408A07BA9783C7370093F7F70F87
:10151000A30DF4FC0347B4FD834764FEB317F70043
:10152000A30DF4FC0347B4FD834764FEB357F740B3
:10153000A30DF4FC034734FE8347B4FDD98F93F722
:10154000F70F032784FE232AE4FCA309F4FC3707E2
:1015500000D2832744FD938707408A07BA97034741
:1015600034FDA381E70011A001009D472326F4FE6E
:10157000370700D28327C4FE938707408A07BA97AC
:1015800083C7170093F7F70FB70600D293E717004A
:1015900013F7F70F8327C4FE938707408A07B69790
:1015A000A380E700010081473E8576442561828063
:1015B000797122D60018232EA4FC232CB4FC032717
:1015C000C4FD832784FDB307F7402324F4FE9387EB
:1015D00041849843832784FE3E979387418498C330
:1015E000938741849843832784FE3E979307800C1A
:1015F0003307F702938781849C43832684FE9D8E64
:10160000856793878738B387F6023E978326C4FDA4
:101610009307C012B387F6023E97A947B347F70274
:101620002326F4FE9387418498439307200363D7CE
:10163000E700938741841307200398C3938741846D
:1016400098439307E0FC6357F7009387418413079F
:10165000E0FC98C30327C4FE8567938707FA63D726
:10166000E7008567938707FA2326F4FE0327C4FE65
:10167000FD77938707066357F700FD779387070683
:101680002326F4FE93878184032784FE98C383274F
:10169000C4FE3E85325445618280797122D600189D
:1016A000232EA4FC232CB4FC0327C4FD832784FD34
:1016B000B307F7402324F4FE9387C184984383271C
:1016C00084FE3E979387C18498C3032784FE9307C3
:1016D00040063307F702938701859C43832684FEE7
:1016E0009D8E9307803EB387F6023E979307803E18
:1016F000B347F7022326F4FE9387C18498439307E8
:10170000803E63D7E7009387C1841307803E98C368
:101710009387C1849843930780C16357F7009387E9
:10172000C184130780C198C30327C4FE9307200315
:1017300063D6E700930720032326F4FE0327C4FEA5
:101740009307E0FC6356F7009307E0FC2326F4FEC2
:1017500093870185032784FE98C38327C4FE3E85B3
:10176000325445618280411122C60008B70701E06A
:10177000D84397F7F11F9387A79298C397F7F11F64
:10178000938707929C4363C8070C97F7F11F9387D1
:1017900027919C4313F7F70F97F7F11F93878790D3
:1017A0002380E70097F7F11F9387C78F03C70700D0
:1017B00093070003631DF700938781809C4393B7D1
:1017C000170093F7F70F3E879387818098C397F7A9
:1017D000F11F9387278D03C7070093071003631733
:1017E000F702B70710409387071098438D476309A6
:1017F000F700B7071040938707109C43850711A097
:10180000814737071040130707101CC397F7F11FD4
:101810009387478903C7070093072003631DF702D7
:1018200097F7F11F938707879C4393B7170093F7A8
:10183000F70F3E8797F7F11F9387C78598C397F7F0
:10184000F11F93876785054798C397F7F11F938723
:10185000E78423A007000100324441018280411146
:1018600006C622C4000817F5FFFF1305A5ABEF104D
:10187000601405651305459C81452D360100B24075
:10188000224441018280797122D60018370700D1A5
:101890008567BA9783A7C7FFB70600D113E717007C
:1018A0008567B69723AEE7FE010005671307479CDF
:1018B00081472324E4FE2326F4FEB70700D1984392
:1018C000DC432320E4FE2322F4FE032884FE832845
:1018D000C4FE032504FE832544FE3306A800B28718
:1018E000B3B70701B386B800B697BE86232CC4FCF5
:1018F000232ED4FC85460327C4FD832744FE63EFD3
:10190000E7000327C4FD832744FE6318F70003277D
:1019100084FD832704FE63E3E700814693F7F60F17
:1019200091CBB70700D1032684FD8326C4FD90C761
:10193000D4C739A8B70700D10146814690C3D4C3A4
:10194000B70700D1032684FE8326C4FE90C7D4C700
:1019500001003254456182801D7186CE96CC9ACAB0
:101960009EC8A2C6A6C4AAC2AEC032DE36DC3ADA2F
:101970003ED842D646D472D276D07ACE7ECC801073
:10198000F3272034BE8086872326F4FAF327103409
:10199000BE8086872324F4FAF327407CBE808687A6
:1019A0002322F4FAA14073A0003001006D3B97E7B9
:1019B000F11F9387276E984385476310F70697E7D3
:1019C000F11F9387A76D98439307703E63D8E70094
:1019D00097E7F11F9387476C7D5798C397E7F11FEF
:1019E0009387C76B9843930790C16358F70097E7B5
:1019F000F11F9387676A054798C397E7F11F93879D
:101A0000E769984397E7F11F938707699C433E97DF
:101A100097E7F11F9387876898C3B70710409387AC
:101A200007109C430D47638FE71E0D476368F7243B
:101A300009476386E71209476362F72489C70547A8
:101A4000638EE70625AC97E7F11F938727639843DA
:101A5000B70710409387471098C397E7F11F938704
:101A600027629843B70710409387871098C3B7073A
:101A70001040938707108C43B70710409387471097
:101A80009043B7071040938747309443B7071040FF
:101A9000938787109843B707104093878730884310
:101AA000B7071040938747359C433E88AA8717F5B0
:101AB000FFFF1305A58AEFE01FF2C9A297E7F11F08
:101AC0009387C75B9843B70710409387471098C325
:101AD00093878180984385476318F70297E7F11F42
:101AE0009387475A9843B7071040938747359C43DD
:101AF000BE853A85753CAA873307F040B70710408A
:101B00009387871098C325A097E7F11F938787577E
:101B10009843B7071040938747359C43BE853A8565
:101B2000413C2A87B70710409387871098C3B707AF
:101B3000104093870710984397E7F11F93878754C6
:101B40009043B7071040938747359C43BE86BA85BC
:101B500017F5FFFF1305C581EFE0FFE705A297E743
:101B6000F11F9387A7519843B707104093874710F9
:101B700098C393878180984385476311F70497E75B
:101B8000F11F938767509843B70710409387C73575
:101B90009C43BE853A8511362A87B7071040938744
:101BA00047359C43BE853A852134AA873307F040E8
:101BB000B70710409387871098C32DA897E7F11FA8
:101BC0009387874C9843B70710409387C7359C434A
:101BD000BE853A85D9342A87B707104093874735A1
:101BE0009C43BE853A85E9322A87B7071040938720
:101BF000871098C3B707104093870710984397E75B
:101C0000F11F938767489043B70710409387C73504
:101C10009C43BE86BA8517E5FFFF13056575EFE0A7
:101C20009FDBA9A897E7F11F938747469843B7071B
:101C300010409387471198C397E7F11F9387474553
:101C40009843B70710409387871198C3B707104090
:101C500093870710984397E7F11F93872743904393
:101C600097E7F11F9387C7429C43BE86BA8517E565
:101C7000FFFF1305E56FEFE01FD60100370700D126
:101C80008567BA9783A7C7FFB70600D113F7E7FFA9
:101C90008567B69723AEE7FE0100A14473B0043018
:101CA0000100832444FA7390447C832484FA739063
:101CB00014348324C4FA739024340100F640E642BD
:101CC0005643C6433644A644164586457256E256E8
:101CD0005257C2573258A258125E825E724FE24F7C
:101CE000256173002030411106C622C40008F92A7C
:101CF0000100B7071040938707309C43FDDB97E74F
:101D0000F11F938727399C43639C070EB707104048
:101D1000938707109C4385EB97E7F11F938747361E
:101D20001307007D98C31305803EEFE01FF397E78C
:101D3000F11F9387E7341307008398C31305803E90
:101D4000EFE0BFF16DBFB7071040938707109843CE
:101D500085476319F70297E7F11F9387A7321307A7
:101D6000200398C31305803EEFE03FEF97E7F11F94
:101D7000938747311307E0FC98C31305803EEFE0DB
:101D8000DFEDB5BFB7071040938707109843894729
:101D90006319F70297E7F11F9387072F1307004096
:101DA00098C31305803EEFE05FEB97E7F11F938741
:101DB000A72D130700C098C31305803EEFE0FFE98D
:101DC0003DBFB70710409387071098438D47E3182E
:101DD000F7F297E7F11F9387A72B1307803E98C36D
:101DE0001305803EEFE07FE797E7F11F9387472ACF
:101DF000130780C198C31305803EEFE01FE601B7CB
:101E00000545EFE09FE5B7071040938707109C4317
:101E100091EF97E7F11F938767289C43139717006B
:101E200097E7F11F9387C72598C3D1BDB707104027
:101E300093870710984385476312F70497E7F11FCC
:101E40009387C7259C433E85EF0070212A87AE8784
:101E500097E6FFFF938686539042D4423A85BE852B
:101E6000A12B2A87AE873A85BE85EF0010192A87F5
:101E700097E7F11F9387072198C351B5B707104023
:101E80009387071098438947631FF70097E7F11F6F
:101E90009387C7209C431397170097E7F11F9387F9
:101EA000A71E98C3A9BDB707104093870710984392
:101EB0008D47E316F7E497E7F11F9387271E9843B2
:101EC000B70710409387871198C315BD011106CE3F
:101ED00022CC00100D46F16793850720370501E0FD
:101EE000EFE07FC18145370501E0EFE01FCAB7078A
:101EF000104091071D4798C3B7071040B10723A0B2
:101F00000700B7071040C107054798C3B70710403F
:101F100093870710094798C3B707104093870710A6
:101F20009C4391EF97E7F11F9387471623A0070083
:101F300097E7F11F9387C71523A007008DA8B70760
:101F400010409387071098438547631FF70097E772
:101F5000F11F9387A71223A0070097E7F11F93872C
:101F6000671223A00700A1A0B707104093870710AE
:101F7000984389476319F70097E7F11F9387C710C4
:101F800023A007002DA0B7071040938707109843A0
:101F90008D47631EF70097E7F11F9387270F23A054
:101FA000070097E7F11F9387A70E23A00700B70745
:101FB0001040938707201D671307075398C3B7077F
:101FC0001040938747200567130787BB98C3B7075F
:101FD00010409387C7201D671307075398C3B7079F
:101FE0001040938707210567130787BB98C3B7077E
:101FF0001040054798C38547A307F4FE8947230788
:10200000F4FE8346E4FE9707000093872795014777
:10201000014685450D45EFE0DFF58346F4FE970761
:102020000000938787860147014681451D45EFE003
:102030005FF4A14073A000300100EFF05F8217E56C
:10204000FFFF1305A533EFE01F990100F240624442
:1020500005618280AA88AE87328836854683639977
:10206000062097E6FFFF9386A63663F0C50C41670E
:102070006376E60A1307F00F3337C7000E073355B0
:10208000E600AA9683C60600130500023697B3063B
:10209000E540630CE500B397D70033D7E800331869
:1020A000D600B365F7003393D80093580801B3D72F
:1020B000150313160801418213570301B3F61503E4
:1020C0003E85B305F602C206558F637CB700429782
:1020D0001385F7FF636707016375B7001385E7FF93
:1020E00042970D8FB37717034203135303013357FE
:1020F0001703C20733E36700B306E6023A86637B41
:10210000D30042931306F7FF636603016374D300A1
:102110001306E7FF4205518D81455DA83705000193
:102120004147E36EA6F4614799BF01E6054733587E
:10213000C7024167637FE8081307F00F6373070165
:1021400021453357A800BA9603C7060013060002BC
:102150002A97B306E6406315E608B387074185452D
:102160009358080113160801418213570301B3F66F
:102170001703B3D71703C206558F330EF6023E85F9
:10218000637CC70142971385F7FF63670701637597
:10219000C7011385E7FF42973307C741B37717039A
:1021A00042031353030133571703C20733E3670096
:1021B000B306E6023A86637BD30042931306F7FF29
:1021C000636603016374D3001306E7FF4205518D74
:1021D0008280370700014145E365E8F6614595B720
:1021E0003318D800B3D5E7003393D800B397D7009E
:1021F00033D7E800935808013366F70033F7150327
:1022000093170801C18313550601B3D5150342077F
:10221000498FB386B7022E85637CD700429713851A
:10222000F5FF636707016375D7001385E5FF4297E4
:10223000B306D74033F7160342064182B3D61603DE
:102240004207B388D702B367C700368763FC17011C
:10225000C2971387F6FF63E7070163F5170113873A
:10226000E6FFC29793150501B3871741D98DCDBD00
:1022700063E1D514416763FFE6021307F00FB3353E
:10228000D7008E0533D5B60017E7FFFF13074714B5
:102290002A9703470700130500022E97B305E54070
:1022A0006311E5020545E3E5F6F233B5C8001345D1
:1022B000150039BF37070001C145E3E5E6FCE145FC
:1022C000D1B73353E600B396B6003363D30033D5AA
:1022D000E700935E0301B376D503B397B70033D716
:1022E000E8003368F70093170301C183135708010F
:1022F0003316B6003355D503C206558F338FA70268
:102300002A8E637CE7011A97130EF5FF6367670057
:102310006375E701130EE5FF1A973307E741B376BC
:10232000D7033357D703C206B38EE70293170801CA
:10233000C183D58F3A8563FCD7019A971305F7FFC0
:1023400063E7670063F5D7011305E7FF9A97420E2D
:10235000B387D741C16E3365AE009386FEFF3373FA
:10236000D50013580501F18E4182330ED302B30616
:10237000D80213570E013303C30236931A9733085A
:10238000C8026373D700769893560701369863E0C6
:102390000703E39307D9C167FD177D8F4207337E9B
:1023A000FE00B398B80072978145E3F3E8E27D152B
:1023B000A5B38145014529BD797193D7450122D443
:1023C00026D24ECE52CC56CA9394C50006D64AD0D9
:1023D0005AC85EC6139757012A84B289B68AB1805B
:1023E00013DAF50141C713FBF77F9307F07F63050D
:1023F000FB0C9357D5018E04DD8CB7078000DD8C74
:1024000013193500130B1BC0814B93D74A0113944A
:10241000CA0013975701318013F5F77F93DAFA0159
:1024200055CF9307F07F6301F51093D7D9010E04C0
:102430005D8CB70780005D8C130515C0939739003C
:10244000014793962B00D98E5A95FD16394833468D
:102450005A0193051500636AD80E17E5FFFF1305AF
:1024600065F38A06AA969442AA96828633E9A40066
:10247000630D090485C82685B921130755FFF14767
:1024800063C6E702F547130985FF998FB3942401CA
:10249000B357F400DD8C33192401130BD0C0330B78
:1024A000AB409DB70D2113050502C1BF930485FD07
:1024B000B31494000149D5B733E9A400630B0900B4
:1024C0002A89130BF07F8D4B89B78144014B854BD3
:1024D0002DBF8144130BF07F894B05BFB3673401D7
:1024E000A1CF05C82285C526930655FFF14763C7CE
:1024F000D7027547930785FF158F3314F40033D740
:10250000E900598CB397F9001307D0C03305A740F1
:1025100005BF4E854D2E13050502F9B7130485FD41
:10252000339489008147CDB7B367340191CBCE870F
:102530001305F07F0D4731B701440145054711B739
:1025400001441305F07F0947EDBD416F1307FFFFFD
:102550009356090113D307013379E900F98FB308C2
:1025600023033308F902B38FF602B38EF8019358B0
:102570000801F698338E660263F3F8017A9E93D2CF
:102580000801B3F8E8003378E800135F0401C208DB
:10259000798CC298338786023308890233092F0366
:1025A000B30EE900135908017699B386E603637404
:1025B000E9004167BA96935E0901B69EC166938FA2
:1025C000F6FF3379F9013378F80113D70401420992
:1025D000B3F4F401B38397024299CA923308930289
:1025E000B307F702B30FE3023303F80013D8030174
:1025F0001A986373F800B69F93570801C166BE9F8F
:102600009387F6FF3378F800B3F7F300B30394022F
:1026100042083E9833048702B3049F023303EF025B
:10262000A29413D70301BA9463F384003693C1676D
:10263000FD17B3F6F400C206B3F7F300169EBE967C
:1026400033392E01F69633872601429E33380E0128
:10265000330FF701B3020F01B3B6D60133372701A9
:10266000558F33B80201C180B33FFF01269733E88D
:102670000F0193179E0042971A97B3E71701260799
:10268000B337F000135E7E0113D47201B3E7C701C4
:10269000A60293167700598CB3E7570063DA060A4F
:1026A00013D71700858BD98F1317F401D98F0580A5
:1026B0009386F53F6350D00A13F7770001CF13F7E5
:1026C000F70011456308A70013874700B337F700E9
:1026D0003E94BA871317740063580700370700FF4A
:1026E0007D17798C938605401307E07F634ED70EE4
:1026F00013D737009317D401D98F0D801397460154
:102700003204B706F07F758F3180598C7E06B25047
:102710003367C400225492540259F249624AD24AA1
:10272000424BB24B3E85BA854561828052862684F3
:10273000CA875E8789466309D70A8D46630FD70823
:102740008546E317D7F6014481479DA05686DDB73D
:10275000AA85B9BF0545158D13078003E345A7FE7C
:102760007D476349A7049385E5413317B400B3D689
:10277000A700B397B700558FB337F000D98F335404
:10278000A40013F7770001CF13F7F7009146630811
:10279000D70013874700B337F7003E94BA87131763
:1027A0008400634807041317D4018D83D98F0D80EB
:1027B0008146A9B70557158F130800023357E40067
:1027C0008146630605019385E543B316B400D58FB2
:1027D000B337F000D98F01446DB737040800814743
:1027E0009306F07F014619BF014481479306F07FAD
:1027F00031B701448147854611B713D74501B70664
:1028000010009387F6FF1377F77F1306E03FED8FF5
:10281000FD816354E6041306D0416358E600370592
:1028200000801345F5FF2E958280D58F93063043A7
:10283000998E7D46634DD6001307D7BEB397E70048
:102840003355D5005D8D99C93305A04082801305AD
:102850003041198D33D5A700FDB701458280411164
:1028600006C622C426C229CD9357F54133C4A7001A
:102870001D8C9354F5012285B9201307E041A94727
:10288000098F63C8A702AD47898F5505B357F40078
:102890003314A4002685B2075207B1837E05D98F71
:1028A000B24033E7A700228522449244BA85410111
:1028B0008280930755FFB317F40026850144E1BFDA
:1028C00001478147E5BFC1676376F5029307F00FC3
:1028D000B3B7A7008E07130700021D8F3355F5000D
:1028E00097E7FFFF9387C7AE3E9503450500330585
:1028F000A740828037070001C147E36EE5FCE1474E
:10290000D9BFAA858146014601457DA4411197178B
:1029100000009387072822C41714000013046427BB
:102920001D8C26C206C60984BE8419E42244B24026
:10293000924441016FE03FA67D1493172400A697AF
:102940009C438297DDB74111971700009387672456
:1029500022C4171400001304C4231D8C26C24AC0CD
:1029600006C6098481443E8963988402EFE03FA053
:10297000971700009387E7211714000013046421C0
:102980001D8C098481443E89639F8400B2402244A7
:10299000924402494101828093972400CA979C4344
:1029A00085048297D1B793972400CA979C438504E6
:1029B0008297D9BF5D7122D406D62A842EDA32DC02
:1029C00036DEBAC0BEC2C2C4C6C603A5C18011C528
:1029D0001C4D81E72AC67D2932450C4554182286B4
:1029E00036CEEF009019B2502254616182806FD0D0
:1029F0007FC3011122CC26CA4AC806CE4EC6AA847D
:102A00002E89328401C51C4D91E3692197E7FFFFB0
:102A1000938707AE6319F406C0401C4C1CC483574F
:102A2000C400A18BC9C31C48BDCF1C480840937982
:102A3000F90F1379F90F1D8D5C486346F500A285E7
:102A40002685252E2DE51C440505FD171CC41C40BC
:102A50001387170018C0238037015C486389A700DB
:102A60008357C400858B81CBA9476316F900A285E3
:102A7000268521260DEDF2406244D244B2494A85B2
:102A800042490561828097E7FFFF938767A8631437
:102A9000F400804459B797E7FFFF938767A3E31ECD
:102AA000F4F6C0449DBFA285268521203DDD7D59D9
:102AB000D9B7411122C426C24AC006C683A4C18028
:102AC0002A892E8489C49C4C99E32685E12697E7C0
:102AD000FFFF9387E7A16317F402C0408317C40088
:102AE0001397070193F687004183ADEA93760701B8
:102AF00095EA25472320E90093E707042316F4000D
:102B00007D5571A897E7FFFF938787A06314F400B2
:102B10008044E9B797E7FFFF9387879BE310F4FCB6
:102B2000C0446DBF118B0DC74C5889C9930744042D
:102B30006384F5004A859525232A04028357C4003F
:102B40002322040093F7B7FD2316F4001C481CC091
:102B50008357C40093E787002316F4001C4881EFD5
:102B60008357C4001307002093F707286385E70005
:102B7000A2854A85CD218317C4001397070193F6D8
:102B8000170041839DC2544823240400B306D0405B
:102B900014CC1448014581E61377070831FFB24091
:102BA00022449244024941018280937627000146E3
:102BB00091E2504810C4F1BFAA88138541851C4199
:102BC00091EF1387418918C117D5F1FF130585438C
:102BD000BA8709C51C412324F708BA87D8437D4822
:102BE0007D556346E804638D080203A887086300E7
:102BF000080413152700429510C103230810054649
:102C00003316E6003363C300232068102320D50861
:102C100089466397D80083264810558E2322C81012
:102C2000930617000A07D4C3BA978CC70145828060
:102C300083D7C500011122CC26CA06CE4AC84EC68B
:102C400013F78700AA842E8465E7D8416347E00024
:102C5000B8416344E0000145C1A058546DDF03A9A9
:102C600004009396370123A0040063DE060668483B
:102C70008357C400918B99C75C401D8D5C5899C3E4
:102C80003C401D8D5C540C502A86814626858297D7
:102C9000FD570357C400631DF5009440F54763E4F6
:102CA000D708B70740208507B3D7D700858BA5CFB6
:102CB0001C48232204001CC09317370163D8070067
:102CC000FD576314F5009C4091E368C84C5823A05D
:102CD0002401D1D1930744046384F5002685752926
:102CE000232A04028DBF0C50854601462685029793
:102CF000FD57E31FF5F69C40A5DF75476385E700A8
:102D000059476395E70023A02401B1B78357C40056
:102D100093E707042316F400F2406244D244424988
:102D2000B24905618280136707042316E400EDB7FA
:102D300083A90501E38109F203A905008D8B23A076
:102D4000350133093941014791E3D84918C4E354A7
:102D500020F11C540C50CA864E8626858297634A01
:102D6000A0008357C4007D5593E707042316F400A1
:102D700065B7AA993309A940D9BF9C49B9CF0111B8
:102D800022CC06CE2A8411C51C4D81E72EC61922FD
:102D9000B24597D7FFFF9387A775639BF5004C401B
:102DA0008397C50095C722856244F240056149B505
:102DB00097D7FFFF9387C7756394F5000C44CDB791
:102DC00097D7FFFF9387C770E39CF5FC4C44C9BFBE
:102DD000F2406244014505618280014582804111D3
:102DE00022C406C62A842316B5002317C500232053
:102DF000050023220500232405002322050623289D
:102E00000500232A0500232C0500214681451305D2
:102E1000C505C52497170000938767825CD0971774
:102E200000009387C7841CD49717000093870789F5
:102E30005CD4971700009387C78BB24000D01CD892
:102E400022444101828097050000938545F391A2B9
:102E5000411126C2130680069384F5FFB384C40291
:102E60004AC02E8922C406C693854407C12E2A84EF
:102E700019C92320050023222501310508C4138622
:102E800084068145BD24B2402285224492440249F1
:102E9000410182801C4DADE3411122C406C6970753
:102EA0000000938787FA1CD52324050423260504F4
:102EB0002328050483A701812A846314F50085472C
:102EC0001CCD22851D2848C02285052808C42285DE
:102ED0002D2048C448400146914511370844054615
:102EE000A545F53D48440946C945D53D8547B2400D
:102EF0001CCC2244410182808280411126C283A4DD
:102F000001819C4C4AC006C622C42A8999E32685C1
:102F10005137938484048044DC40FD1763D6070056
:102F20009C40B1CF8440C5BF0317C40031E7C177CF
:102F300085072322040623200400232204002324DF
:102F400004005CC423280400232A0400232C04006A
:102F5000214681451305C405692A232A0402232C2E
:102F600004022324040423260404B24022852244BC
:102F700092440249410182801304840679BF91453D
:102F80004A85F93588C02A8451FDB1472320F900CC
:102F9000E9BF797122D44AD04ECE52CC5AC85EC60F
:102FA00006D626D256CA2A892E8A13048504814958
:102FB000054BFD5B0444832A4400FD1A63D00A02DA
:102FC00000406DF8B250225492540259624AD24ADB
:102FD000424BB24B4E85F2494561828083D7C40093
:102FE000637BFB008397E40063877701A6854A85AE
:102FF000029AB3E9A90093848406C1B75971CAD073
:103000002E898395E500A2D4A6D286D63284B684D2
:1030100063DC05008357C90023A0040093F7070869
:103020008DE39307004005A03000392FE34405FEEF
:103030003247BD67F98F7977BA9793B717009CC06D
:10304000CDB793070004B6501CC0265496540659B9
:1030500001456561828083D7C500011122CC06CE6F
:1030600026CA4AC8898B2E8489CF930774041CC052
:103070001CC885475CC8F2406244D244424905619D
:103080008280740030002A89953FA245AA844A852F
:10309000752201ED8317C40013F7072069FFF19B28
:1030A00093E727002316F400C9B79707000093871A
:1030B000C7D92324F9028357C40008C008C893E77E
:1030C00007082316F400A2475CC8B24789CF8315CE
:1030D000E4004A85792D01C98357C400F19B93E729
:1030E00017002316F4000355C400C98C231694005E
:1030F00059B73D432A876373C3029377F700BDEF47
:10310000ADE5937606FF3D8ABA960CC34CC30CC757
:103110004CC74107E36BD7FE11E28280B306C34080
:103120008A069702000096966780A6002307B700DC
:10313000A306B7002306B700A305B7002305B70011
:10314000A304B7002304B700A303B7002303B70009
:10315000A302B7002302B700A301B7002301B70001
:10316000A300B7002300B700828093F5F50F939674
:103170008500D58D93960501D58D61B7939627006F
:103180009702000096968682E78086FA9680C1179D
:103190001D8F3E96E374C3F8A5B7C5C183A7C5FFCD
:1031A000011122CC06CE1384C5FF63D307003E94E1
:1031B0002AC63D25138781851C4332453A8681EB1B
:1031C0002322040000C36244F240056119AD637E0E
:1031D000F40014403307D4006396E7009843DC43BF
:1031E000369718C05CC000C2F9BF3E87DC4399C364
:1031F000E37DF4FE14433306D700631F86001040BE
:10320000B29614C33306D700E39FC7FA9043DC435A
:10321000B29614C35CC345BF6375C400B1471CC1FB
:103220005DB71040B306C4006396D7009443DC43F7
:10323000B29614C05CC040C379B78280011126CA1F
:1032400093843500F1984AC806CE22CC4EC6A1041C
:10325000B1472A8963F1F404B14463E0B4044A85B8
:103260004123938781859843BE863A8431E0138455
:10327000C1851C4089E781454A85612E08C0A68525
:103280004A85412EFD5963183507B1472320F900BF
:103290004A85812B31A0E3D204FCB1472320F900F9
:1032A0000145F2406244D2444249B24905618280FC
:1032B0001C40858F63CE07022D466376F6001CC046
:1032C0003E9404C029A05C40631287029CC24A85D8
:1032D000092B1305B4009307440061993307F540A7
:1032E000E301F5FC3A94898F1CC065BF5CC3C5B788
:1032F00022874040A5BF130435007198E30385FC85
:10330000B305A4404A853126E31D35FBBDBF1C46ED
:10331000FD171CC663DA0700184E63C5E700A9470E
:103320006394F5006FF0EFEC1C422E8513871700B5
:1033300018C22380B7008280011122CC26CA4AC855
:103340004EC652C406CE2A89AE893284B304D60052
:103350007D5A63149400014509A8834504004E86F4
:103360004A8575370504E31645FFF2406244D244AE
:103370004249B249224A05618280357122CD26CB6D
:103380004AC94EC706CF52C556C35AC1DEDEE2DC7B
:10339000E6DAAA89AE843289368401C51C4D91E3F0
:1033A000D53C97D7FFFF9387A714639BF40C83A4A6
:1033B000490083D7C400A18BF5C79C48E5C7930794
:1033C0000002A304F1029307000302D22305F102D5
:1033D00022C6930B500297DAFFFF938A6A15054CB9
:1033E000294B4A848347040099C36390770FB30C39
:1033F0002441630D2401E6864A86A6854E852D3F2D
:10340000FD576306F51E9257E6973ED283470400A8
:10341000638F071CFD571309140002C802CE3ECA71
:1034200002CCA309010482D48345090015465685C0
:10343000592EC2471304190059E913F7070109C7A8
:1034400013070002A309E10413F7870009C7130754
:10345000B002A309E104834609001307A0026380B8
:10346000E608F2474A84814625460347040093054F
:103470001400130707FD6379E60AB5CA3ECE85A896
:1034800097D7FFFF9387C7086395F40083A489004B
:103490000DB797D7FFFF9387A703E39CF4F083A4AE
:1034A000C90001BFA6854E85EFF0AFE009D97D5573
:1034B000FA406A44DA444A49BA492A4A9A4A0A4BC3
:1034C000F65B665CD65C0D618280050421BF330526
:1034D00055413315AC00C98F3EC82289B1B7324778
:1034E00093064700184336C6634907023ACE03479E
:1034F00004009307E002631FF704034714009307D7
:10350000A002631BF702B2470904138747009C43DC
:103510003AC663C107023ECA35A83307E04093E7C5
:1035200027003ACE3EC8E1B7B38767032E848546AD
:10353000BA9725BFFD57C5B7050402CA8146814722
:1035400025460347040093051400130707FD63761F
:10355000E606F1F2834504000D4617D5FFFF13057B
:10356000A5FD952411CD97D7FFFF9387E7FC1D8D0F
:1035700093070004B397A700424505045D8D2AC850
:1035800083450400194617D5FFFF130525FB1309D2
:1035900014002304B102052C3DC197D7F1FF938796
:1035A00067A695E74247B2471377071009CF9107FF
:1035B0003EC69257D2973ED22DB5B38767032E846D
:1035C0008546BA97BDBF9D07E19BA107D5B7780097
:1035D00097060000938686D626860C084E859700AF
:1035E0000000E7000000FD572A8AE314F5FC83D7AA
:1035F000C40093F70704E39C07EA125555BD780011
:1036000097060000938686D326860C084E85CD2427
:10361000D9BF411122C42A842E8523A0019206C657
:10362000EFD04F89FD576316F50083A7019291C330
:103630001CC0B240224441018280411122C42E8428
:103640008395E50006C6312B634905007C48AA979F
:103650007CC8B2402244410182808357C4007D77F8
:103660007D17F98F2316F400EDB783D7C50001113C
:1036700022CC26CA4AC84EC606CE93F70710AA84A3
:103680002E843289B68991C78395E5008946014623
:1036900029228357C4007D777D17F98F8315E400B5
:1036A0002316F4006244F240CE864A86B24942496B
:1036B0002685D24405613DA8411122C42E848395FC
:1036C000E50006C6D928FD570357C400631BF50063
:1036D000FD77FD17F98F2316F400B2402244410113
:1036E00082808567D98F2316F40068C8FDB783955B
:1036F000E5003DA0411122C42A842E85B28536867C
:1037000023A0019206C6EFD06F82FD576316F50025
:1037100083A7019291C31CC0B24022444101828020
:10372000411122C42A842E8523A0019206C6EFC02F
:103730007FEAFD576316F50083A7019291C31CC071
:10374000B240224441018280411122C42A842E8544
:10375000B28523A0019206C6EFC0DFEAFD576316CB
:10376000F50083A7019291C31CC0B24022444101DD
:103770008280411122C42A842E8523A0019206C68C
:10378000EFC05FEAFD576316F50083A7019291C36E
:103790001CC0B240224441018280411122C42A84CB
:1037A0002E85B285368623A0019206C6EFC01FEA99
:1037B000FD576316F50083A7019291C31CC0B24068
:1037C00022444101828093F5F50F2A966314C500C7
:1037D0000145828083470500E38DB7FE0505FDB7EF
:1037E00082808280797152CC9C493A8A984522D451
:1037F00026D24ECE56CA06D64AD05AC85EC6AA8926
:103800002E84B284B68A63D3E700BA879CC003478C
:10381000340419C385079CC01C4093F7070281C775
:103820009C4089079CC00329040013796900631A2E
:103830000900130B9401FD5B5C449840998F634C25
:10384000F90483473404B336F0001C4093F70702B1
:10385000A5EB13063404D6854E85029AFD57630303
:10386000F5041C4011469840998B54448144639759
:10387000C700B384E64063D3040081441C44184865
:103880006354F700998FBE94014969047D5B639886
:103890002405014509A885465A86D6854E85029A93
:1038A000631E75017D55B250225492540259F2495B
:1038B000624AD24A424BB24B456182800509ADBF94
:1038C0003307D40013060003A301C70403475404BD
:1038D00093871600A2978906A381E7049DBF8546BA
:1038E0002286D6854E85029AE30E65FB050945B70B
:1038F000797122D426D24AD04ECE06D652CC56CAA0
:103900005AC82E84B6899386350483C585019307EA
:103910008007AA84328963ECB7009307200663ED21
:10392000B7006386051C93078005638BF512930A25
:1039300024042301B40415A89387D5F993F7F70F4E
:103940005546E366F6FE17D6FFFF130626C28A0722
:10395000B2979C43B29782871C43930A24049386B0
:1039600047009C4314C32301F404854765A21C400F
:10397000084313F60708930545000DC21C410CC30C
:1039800063D807001307D002B307F040A301E40493
:1039900017D6FFFF130606BB2947A9A013F6070495
:1039A0001C410CC371DEC207C187D9BF10401C4344
:1039B00013780608138547006305080008C39C4375
:1039C00039A01376060408C37DDA83D707001307EE
:1039D000F00617D6FFFF1306E6B66384E50E294707
:1039E000A30104044C400CC463C5050008406D9954
:1039F00008C099E3B68A99CDB68AB3F5E702FD1AF5
:103A0000B29583C505002380BA00BE85B3D7E7020F
:103A1000E3F5E5FEA147631EF7001C40858B91CBC3
:103A200058401C4863C7E70093070003A38FFAFEC2
:103A3000FD1AB386564114C84E87CA867000A28507
:103A400026854D337D5A631B450D7D55B25022545A
:103A500092540259F249624AD24A424B45618280ED
:103A6000A302B40417D6FFFF1306C6AD0C400843EB
:103A700013F805081C411105630D080208C313F76C
:103A8000150001C793E505020CC04147B1FB0C408E
:103A900093F5F5FD0CC0A9B71C4093E707021CC0C5
:103AA00093078007A302F40417D6FFFF1306C6AAE4
:103AB00075BF13F8050408C3E30308FCC207C183FC
:103AC0007DBF214731BF10401C434C481378060886
:103AD000138547006306080008C39C438CC301A8F4
:103AE00008C3137606049C4375DA2390B700232895
:103AF0000400B68A91B71C43504081459386470025
:103B000014C383AA070056857D3901C53305554185
:103B100048C05C401CC8A301040439BF1448568641
:103B2000CA8526858299E30245F31C40898B8DE77F
:103B3000B2474844E35CF5F03E8509BF85465686AA
:103B4000CA8526858299E30265F1050A5C443247FD
:103B5000998FE345FAFEE9BF014A930A94017D5B20
:103B6000F5B7411122C42A842E85B285368623A05A
:103B7000019206C6EFC0DFAFFD576316F50083A7BD
:0E3B8000019291C31CC0B240224441018280D8
:103B900000000000EC040E000C050E00CC040E002A
:103BA0000000000000000000000000000000000015
:103BB0000000000000000000000000000000000005
:103BC00000000000000000000000000000000000F5
:103BD00000000000000000000000000000000000E5
:103BE00000000000000000000000000000000000D5
:103BF0008801002000E1F505010000000000002020
:083C000000000020000000009C
:04000003E00000BC5D
:00000001FF
